:107F5800720ED36E936A000E8A6EEFEC3FF0C00E7D
:107F68008A6EEFEC3FF0E00E8A6EEFEC3FF0F00E19
:107F78008A6EEFEC3FF0F80E8A6EEFEC3FF0FC0EE5
:107F88008A6EEFEC3FF0FE0E8A6EEFEC3FF0FF0ECC
:107F98008A6EEFEC3FF0FE0E8A6EEFEC3FF0FC0EBF
:107FA8008A6EEFEC3FF0F80E8A6EEFEC3FF0F00EC1
:107FB8008A6EEFEC3FF0E00E8A6EEFEC3FF0C00EF9
:107FC8008A6EEFEC3FF0800E8A6EEFEC3FF0000E09
:107FD8008A6EEFEC3FF0320E156F310E166F300ED1
:107FE800176F0000172FF5EF3FF0162FF3EF3FF054
:087FF800152FF1EF3FF012001C
:020000040030CA
:0400000000091F1EB6
:020005008381F5
:060008000FC00FE00F40E5
:00000001FF
