:040000000DEF08F008
:1008000000001250800B1B6E12501224216E11AE8C
:100810000CEF04F00EEF04F00FEF04F021802150F4
:10082000D8B415EF04F017EF04F02AEF04F02128F4
:10083000D8A41DEF04F01FEF04F027EF04F0000E22
:100840000F6E000E106E000E116E000E126E118EE5
:1008500032EF04F0000E0F6E000E106E000E116EDF
:10086000000E126E1650800B1B1A16501624206EA6
:1008700015AE3DEF04F03FEF04F040EF04F02080B0
:100880002050D8B446EF04F048EF04F05BEF04F0DA
:100890002028D8A44EEF04F050EF04F058EF04F0F5
:1008A000000E136E000E146E000E156E000E166E06
:1008B000158E63EF04F0000E136E000E146E000E22
:1008C000156E000E166E2050D8B469EF04F06BEF71
:1008D00004F073EF04F02150D8A471EF04F073EF2B
:1008E00004F07DEF04F0000E0F6E000E106E000E8F
:1008F000116E000E126E15EF06F015500F02F3CFB9
:1009000026F0F4CF27F026501C6E1D6A1E6A1F6A5F
:100910002750226E236A246A256A14501002F3CFEE
:1009200026F0F4CF27F026501C26000E1D221E2292
:100930001F2227502226000E232224222522135074
:100940001102F3CF26F0F4CF27F026501C26000E1C
:100950001D221E221F2227502226000E232224227F
:1009600025221EC01FF01DC01EF01CC01DF01C6AF9
:1009700013501002F3CF26F0F4CF27F026501C2698
:1009800027501D22000E1E22000E1F2214500F029F
:10099000F3CF26F0F4CF27F026501C2627501D2237
:1009A000000E1E22000E1F221EC01FF01DC01EF0D2
:1009B0001CC01DF01C6A13500F02F3CF26F0F4CFB9
:1009C00027F026501C2627501D22000E1E22000E46
:1009D0001F2215501002F3CF26F0F4CF27F0265037
:1009E000222627502322000E2422000E25221450F6
:1009F0001102F3CF26F0F4CF27F0265022262750FD
:100A00002322000E2422000E252215501102F3CFBE
:100A100026F0F4CF27F02650176E2750186E196A6B
:100A20001A6A19C01AF018C019F017C018F0176A1E
:100A30001750222618502322195024221A502522FA
:100A40001CC017F01DC018F01EC019F01FC01AF00E
:100A5000190E30EF05F0D8901A32193218321732C9
:100A6000E82E2BEF05F0175022261850232219509C
:100A700024221A5025221EC01FF01DC01EF01CC0CB
:100A80001DF01C6A205021C017F0186A1726000EAE
:100A90001822820E1724266EFF0E1820276E66EF8E
:100AA00005F0D89022362336243625361FAE5BEF6C
:100AB00005F05DEF05F05EEF05F02280D8901C3662
:100AC0001D361E361F362606D8A0270624AE6BEF2D
:100AD00005F06DEF05F051EF05F0000E206E1FAE32
:100AE00074EF05F076EF05F09AEF05F0FF0E1C1499
:100AF000176EFF0E1D14186EFF0E1E14196E7F0E5A
:100B00001F141A6E1750181019101A10D8B48BEF42
:100B100005F08DEF05F091EF05F0010E206E9AEFD4
:100B200005F022A096EF05F098EF05F09AEF05F09A
:100B30008DEF05F02050D8B4A0EF05F0A2EF05F03E
:100B4000C6EF05F0010E2226000E232224222522C4
:100B500025A0ADEF05F0AFEF05F0C6EF05F022C020
:100B600017F023C018F024C019F025C01AF01A3469
:100B70001A3219321832173217C022F018C023F077
:100B800019C024F01AC025F0264A272A27BED1EF23
:100B900005F0275008E12628D8A0D1EF05F0D3EFC3
:100BA00005F0DDEF05F0000E226E000E236E800EC4
:100BB000246E7F0E256E0BEF06F027BEEAEF05F0E0
:100BC000275006E12604D8B0E8EF05F0EAEF05F07B
:100BD000F6EF05F0000E226E000E236E000E246E5E
:100BE000000E256E000E1B6E0BEF06F026C021F0E6
:100BF000FF0E2216FF0E23167F0E2416000E25165A
:100C000021A005EF06F007EF06F008EF06F0248EAE
:100C1000D8902130256E1B50251222C00FF023C022
:100C200010F024C011F025C012F01200096E095016
:100C3000D8B41DEF06F01FEF06F041EF06F004BE3A
:100C400026EF06F024EF06F041EF06F001C005F0B4
:100C500002C006F003C007F004C008F0051E061E1F
:100C6000071E081E052A000E06220722082205C0BC
:100C70000BF006C00CF007C00DF008C00EF049EFF5
:100C800006F001C00BF002C00CF003C00DF004C070
:100C90000EF00150021003100410D8A452EF06F019
:100CA00054EF06F05EEF06F0000E016E000E026ECD
:100CB000000E036E000E046EEFEF06F0960E0A6E45
:100CC00068EF06F00A2AD8900E320D320C320B3241
:100CD000000E0B14056E000E0C14066E000E0D14A3
:100CE000076EFE0E0E14086E055006100710081051
:100CF000D8A47DEF06F07FEF06F062EF06F08DEFEF
:100D000006F00A2A010E0B26000E0C220D220E22DE
:100D1000D8900E320D320C320B32000E0B14056ED1
:100D2000000E0C14066E000E0D14076EFF0E0E144E
:100D3000086E0550061007100810D8A4A2EF06F0A0
:100D4000A4EF06F081EF06F0ACEF06F00A06D890AB
:100D50000B360C360D360E360DBEB1EF06F0B3EF86
:100D600006F0BBEF06F0020E0A60B9EF06F0BBEF2B
:100D700006F0A6EF06F00AB0C0EF06F0C2EF06F0EC
:100D8000C3EF06F00D9ED8900A320AC005F0066A3D
:100D9000076A086A05C008F0076A066A056A05500E
:100DA0000B1206500C1207500D1208500E1209506B
:100DB000D8B4DDEF06F0DFEF06F0E7EF06F004BE93
:100DC000E6EF06F0E4EF06F0E7EF06F00E8E0BC05C
:100DD00001F00CC002F00DC003F00EC004F01200D0
:100DE0002A342B34316E3150D8A4F9EF06F0FBEFE2
:100DF00006F005EF07F0000E286E000E296E000EBB
:100E00002A6E000E2B6E72EF07F028C02CF029C05E
:100E10002DF02AC02EF02BC02FF0200E15EF07F07A
:100E2000D8902F322E322D322C32E82E10EF07F0D0
:100E30002C50306E2A8EFF0E2816FF0E2916FF0E3C
:100E40002A16000E2B16960E315E31BE2CEF07F0DF
:100E50002AEF07F042EF07F03150800A970FD8B021
:100E600034EF07F036EF07F038EF07F0FBEF06F04E
:100E7000D8902B322A3229322832313E38EF07F00F
:100E80005AEF07F01F0E316448EF07F04AEF07F002
:100E900052EF07F0FBEF06F0D890283629362A36B5
:100EA0002B3631063150D8A458EF07F05AEF07F02F
:100EB0004CEF07F03050D8B460EF07F062EF07F066
:100EC0006AEF07F02B1E2A1E291E286C000E29220D
:100ED0002A222B2228C028F029C029F02AC02AF073
:100EE0002BC02BF0120001C003F0D8900336D8902D
:100EF00003363C0E0316C250C30B0310C26EC2B2BF
:100F000084EF07F088EF07F0036A032A89EF07F000
:100F1000036A010E046E032A90EF07F0D89004369E
:100F2000032E8EEF07F0C2B098EF07F09CEF07F0AA
:100F3000056A052A9DEF07F0056A010E066E052A6F
:100F4000A4EF07F0D8900636052EA2EF07F0065062
:100F50000410C212C2B2AFEF07F0B1EF07F0AAEF70
:100F600007F0C350C4CF03F0046A03C004F0036A5F
:100F70000310076E0450086E07C001F008C002F0AD
:100F80001200000E936E720ED36E03EC08F0000E8A
:100F9000026E000E016E73EC07F001C032F002C069
:100FA00033F0000E136E000E146E800E156E3E0EA2
:100FB000166E32C001F033C002F0000E02BEFF0E0A
:100FC000036E046E010E16EC06F001C00FF002C0B5
:100FD00010F003C011F004C012F001EC04F00FC0D7
:100FE00028F010C029F011C02AF012C02BF0F0EC4C
:100FF00006F028C034F029C035F034C081FFC7EFB7
:1010000007F000EF00F092680E0EC16E920EC06EF7
:10101000000EC46E000EC36E12000001C1EF07F097
:00000001FF
